{
  "address": "0x1b3e380a994F5909c5C808b872aC73c27D9d0B6C",
  "abi": [
    {
      "inputs": [],
      "stateMutability": "nonpayable",
      "type": "constructor"
    },
    {
      "inputs": [],
      "name": "AccessControlBadConfirmation",
      "type": "error"
    },
    {
      "inputs": [
        {
          "internalType": "address",
          "name": "account",
          "type": "address"
        },
        {
          "internalType": "bytes32",
          "name": "neededRole",
          "type": "bytes32"
        }
      ],
      "name": "AccessControlUnauthorizedAccount",
      "type": "error"
    },
    {
      "anonymous": false,
      "inputs": [
        {
          "indexed": true,
          "internalType": "bytes32",
          "name": "role",
          "type": "bytes32"
        },
        {
          "indexed": true,
          "internalType": "bytes32",
          "name": "previousAdminRole",
          "type": "bytes32"
        },
        {
          "indexed": true,
          "internalType": "bytes32",
          "name": "newAdminRole",
          "type": "bytes32"
        }
      ],
      "name": "RoleAdminChanged",
      "type": "event"
    },
    {
      "anonymous": false,
      "inputs": [
        {
          "indexed": true,
          "internalType": "bytes32",
          "name": "role",
          "type": "bytes32"
        },
        {
          "indexed": true,
          "internalType": "address",
          "name": "account",
          "type": "address"
        },
        {
          "indexed": true,
          "internalType": "address",
          "name": "sender",
          "type": "address"
        }
      ],
      "name": "RoleGranted",
      "type": "event"
    },
    {
      "anonymous": false,
      "inputs": [
        {
          "indexed": true,
          "internalType": "bytes32",
          "name": "role",
          "type": "bytes32"
        },
        {
          "indexed": true,
          "internalType": "address",
          "name": "account",
          "type": "address"
        },
        {
          "indexed": true,
          "internalType": "address",
          "name": "sender",
          "type": "address"
        }
      ],
      "name": "RoleRevoked",
      "type": "event"
    },
    {
      "inputs": [],
      "name": "ADMIN_ROLE",
      "outputs": [
        {
          "internalType": "bytes32",
          "name": "",
          "type": "bytes32"
        }
      ],
      "stateMutability": "view",
      "type": "function"
    },
    {
      "inputs": [],
      "name": "DEFAULT_ADMIN_ROLE",
      "outputs": [
        {
          "internalType": "bytes32",
          "name": "",
          "type": "bytes32"
        }
      ],
      "stateMutability": "view",
      "type": "function"
    },
    {
      "inputs": [],
      "name": "ELITE_LEVEL",
      "outputs": [
        {
          "internalType": "bytes32",
          "name": "",
          "type": "bytes32"
        }
      ],
      "stateMutability": "view",
      "type": "function"
    },
    {
      "inputs": [],
      "name": "EXPLORER_LEVEL",
      "outputs": [
        {
          "internalType": "bytes32",
          "name": "",
          "type": "bytes32"
        }
      ],
      "stateMutability": "view",
      "type": "function"
    },
    {
      "inputs": [],
      "name": "LEGENDARY_LEVEL",
      "outputs": [
        {
          "internalType": "bytes32",
          "name": "",
          "type": "bytes32"
        }
      ],
      "stateMutability": "view",
      "type": "function"
    },
    {
      "inputs": [],
      "name": "PIONEER_LEVEL",
      "outputs": [
        {
          "internalType": "bytes32",
          "name": "",
          "type": "bytes32"
        }
      ],
      "stateMutability": "view",
      "type": "function"
    },
    {
      "inputs": [],
      "name": "USDCToken",
      "outputs": [
        {
          "internalType": "contract IERC20",
          "name": "",
          "type": "address"
        }
      ],
      "stateMutability": "view",
      "type": "function"
    },
    {
      "inputs": [
        {
          "internalType": "address",
          "name": "newAdmin",
          "type": "address"
        }
      ],
      "name": "addAdmin",
      "outputs": [],
      "stateMutability": "nonpayable",
      "type": "function"
    },
    {
      "inputs": [],
      "name": "getLevel",
      "outputs": [
        {
          "internalType": "bytes32",
          "name": "",
          "type": "bytes32"
        }
      ],
      "stateMutability": "view",
      "type": "function"
    },
    {
      "inputs": [
        {
          "internalType": "bytes32",
          "name": "role",
          "type": "bytes32"
        }
      ],
      "name": "getRoleAdmin",
      "outputs": [
        {
          "internalType": "bytes32",
          "name": "",
          "type": "bytes32"
        }
      ],
      "stateMutability": "view",
      "type": "function"
    },
    {
      "inputs": [
        {
          "internalType": "bytes32",
          "name": "role",
          "type": "bytes32"
        },
        {
          "internalType": "address",
          "name": "account",
          "type": "address"
        }
      ],
      "name": "grantRole",
      "outputs": [],
      "stateMutability": "nonpayable",
      "type": "function"
    },
    {
      "inputs": [
        {
          "internalType": "bytes32",
          "name": "role",
          "type": "bytes32"
        },
        {
          "internalType": "address",
          "name": "account",
          "type": "address"
        }
      ],
      "name": "hasRole",
      "outputs": [
        {
          "internalType": "bool",
          "name": "",
          "type": "bool"
        }
      ],
      "stateMutability": "view",
      "type": "function"
    },
    {
      "inputs": [],
      "name": "minStakingAmount",
      "outputs": [
        {
          "internalType": "uint256",
          "name": "",
          "type": "uint256"
        }
      ],
      "stateMutability": "view",
      "type": "function"
    },
    {
      "inputs": [
        {
          "internalType": "bytes32",
          "name": "role",
          "type": "bytes32"
        },
        {
          "internalType": "address",
          "name": "callerConfirmation",
          "type": "address"
        }
      ],
      "name": "renounceRole",
      "outputs": [],
      "stateMutability": "nonpayable",
      "type": "function"
    },
    {
      "inputs": [
        {
          "internalType": "bytes32",
          "name": "role",
          "type": "bytes32"
        },
        {
          "internalType": "address",
          "name": "account",
          "type": "address"
        }
      ],
      "name": "revokeRole",
      "outputs": [],
      "stateMutability": "nonpayable",
      "type": "function"
    },
    {
      "inputs": [],
      "name": "rewardRate",
      "outputs": [
        {
          "internalType": "uint256",
          "name": "",
          "type": "uint256"
        }
      ],
      "stateMutability": "view",
      "type": "function"
    },
    {
      "inputs": [
        {
          "internalType": "uint256",
          "name": "_amount",
          "type": "uint256"
        }
      ],
      "name": "stakeTokens",
      "outputs": [],
      "stateMutability": "nonpayable",
      "type": "function"
    },
    {
      "inputs": [
        {
          "internalType": "bytes4",
          "name": "interfaceId",
          "type": "bytes4"
        }
      ],
      "name": "supportsInterface",
      "outputs": [
        {
          "internalType": "bool",
          "name": "",
          "type": "bool"
        }
      ],
      "stateMutability": "view",
      "type": "function"
    },
    {
      "inputs": [
        {
          "internalType": "uint256",
          "name": "_minAmount",
          "type": "uint256"
        }
      ],
      "name": "updateStakingAmount",
      "outputs": [],
      "stateMutability": "nonpayable",
      "type": "function"
    },
    {
      "inputs": [],
      "name": "withdrawStake",
      "outputs": [],
      "stateMutability": "nonpayable",
      "type": "function"
    }
  ],
  "transactionHash": "0xdf199b03ac74d1570d2b480f4e7292ff25658d5ef608260aa846051f152202dd",
  "args": [],
  "numDeployments": 3,
  "solcInputHash": "17a42741b8bf18ee0aa291f3bcc4ac68",
  "bytecode": "0x6080604052600180546001600160a01b031916730b2c639c533813f4aa9d7837caf62653d097ff85179055600a600355620f424060045534801561004257600080fd5b5061006d7fa49807205ce4d355092ef5a8a18f56e8913cf4a201fbe287825b095693c2177533610073565b5061011f565b6000828152602081815260408083206001600160a01b038516845290915281205460ff16610115576000838152602081815260408083206001600160a01b03861684529091529020805460ff191660011790556100cd3390565b6001600160a01b0316826001600160a01b0316847f2f8788117e7eff1d82e926ec794901d17c78024a50270940304540a733656f0d60405160405180910390a4506001610119565b5060005b92915050565b610b158061012e6000396000f3fe608060405234801561001057600080fd5b506004361061012c5760003560e01c806375b238fc116100ad578063a5985e8c11610071578063a5985e8c14610286578063b6caaffb1461028e578063bed9d861146102a5578063d547741f146102ad578063f10273f2146102c057600080fd5b806375b238fc1461023a5780637b0a47ee1461024f57806391d1485414610258578063a217fddf1461026b578063a31969161461027357600080fd5b806336568abe116100f457806336568abe146101c15780634c34c8de146101d45780636cc832ff146101ff57806370480275146102145780637547c7a31461022757600080fd5b806301ffc9a71461013157806321fddf2f14610159578063248a9ca31461018057806325c065b1146101a35780632f2ff15d146101ac575b600080fd5b61014461013f3660046109d7565b6102d8565b60405190151581526020015b60405180910390f35b6101726e131151d1539110549657d311559153608a1b81565b604051908152602001610150565b61017261018e366004610a08565b60009081526020819052604090206001015490565b61017260045481565b6101bf6101ba366004610a3d565b61030f565b005b6101bf6101cf366004610a3d565b61033a565b6001546101e7906001600160a01b031681565b6040516001600160a01b039091168152602001610150565b6101726a115312551157d31155915360aa1b81565b6101bf610222366004610a69565b610372565b6101bf610235366004610a08565b61040c565b610172600080516020610ac083398151915281565b61017260035481565b610144610266366004610a3d565b61065b565b610172600081565b6101bf610281366004610a08565b610684565b6101726106a2565b6101726c141253d391515497d311559153609a1b81565b6101bf61072c565b6101bf6102bb366004610a3d565b61086e565b6101726d1156141313d4915497d31155915360921b81565b60006001600160e01b03198216637965db0b60e01b148061030957506301ffc9a760e01b6001600160e01b03198316145b92915050565b60008281526020819052604090206001015461032a81610893565b610334838361089d565b50505050565b6001600160a01b03811633146103635760405163334bd91960e11b815260040160405180910390fd5b61036d828261092f565b505050565b600080516020610ac083398151915261038a81610893565b6103a2600080516020610ac08339815191528361065b565b156103f45760405162461bcd60e51b815260206004820152601860248201527f5468652061646d696e20616c726561647920657869737473000000000000000060448201526064015b60405180910390fd5b61036d600080516020610ac08339815191528361089d565b6000811161046d5760405162461bcd60e51b815260206004820152602860248201527f4465706f73697420616d6f756e74206d7573742062652067726561746572207460448201526768616e207a65726f60c01b60648201526084016103eb565b60045481101580156104f7575060048054600154604051636eb1769f60e11b8152339381019390935230602484015290916001600160a01b039091169063dd62ed3e90604401602060405180830381865afa1580156104d0573d6000803e3d6000fd5b505050506040513d601f19601f820116820180604052508101906104f49190610a84565b10155b61056b576040805162461bcd60e51b81526020600482015260248101919091527f54686520616d6f756e74206f6620746865206465706f736974206d757374206260448201527f6520686967686572207468616e20746865206d696e696d756d20616d6f756e7460648201526084016103eb565b6001546040516323b872dd60e01b8152336004820152306024820152604481018390526001600160a01b03909116906323b872dd906064016020604051808303816000875af11580156105c2573d6000803e3d6000fd5b505050506040513d601f19601f820116820180604052508101906105e69190610a9d565b61062a5760405162461bcd60e51b8152602060048201526015602482015274151bdad95b881d1c985b9cd9995c8819985a5b1959605a1b60448201526064016103eb565b6040805180820182529182524260208084019182523360009081526002909152919091209151825551600190910155565b6000918252602082815260408084206001600160a01b0393909316845291905290205460ff1690565b600080516020610ac083398151915261069c81610893565b50600455565b3360009081526002602052604081205460648110156106d3576d1156141313d4915497d31155915360921b91505090565b6101f48110156106f4576c141253d391515497d311559153609a1b91505090565b6103e8811015610717576e131151d1539110549657d311559153608a1b91505090565b6a115312551157d31155915360aa1b91505090565b336000908152600260205260409020546107935760405162461bcd60e51b815260206004820152602260248201527f4e6f20746f6b656e7320617661696c61626c6520666f72207769746864726177604482015261185b60f21b60648201526084016103eb565b33600081815260026020526040808220805483825560019182019390935554905163a9059cbb60e01b815260048101939093526024830182905290916001600160a01b039091169063a9059cbb906044016020604051808303816000875af1158015610803573d6000803e3d6000fd5b505050506040513d601f19601f820116820180604052508101906108279190610a9d565b61086b5760405162461bcd60e51b8152602060048201526015602482015274151bdad95b881d1c985b9cd9995c8819985a5b1959605a1b60448201526064016103eb565b50565b60008281526020819052604090206001015461088981610893565b610334838361092f565b61086b813361099a565b60006108a9838361065b565b610927576000838152602081815260408083206001600160a01b03861684529091529020805460ff191660011790556108df3390565b6001600160a01b0316826001600160a01b0316847f2f8788117e7eff1d82e926ec794901d17c78024a50270940304540a733656f0d60405160405180910390a4506001610309565b506000610309565b600061093b838361065b565b15610927576000838152602081815260408083206001600160a01b0386168085529252808320805460ff1916905551339286917ff6391f5c32d9c69d2a47ea670b442974b53935d1edc7fd64eb21e047a839171b9190a4506001610309565b6109a4828261065b565b6109d35760405163e2517d3f60e01b81526001600160a01b0382166004820152602481018390526044016103eb565b5050565b6000602082840312156109e957600080fd5b81356001600160e01b031981168114610a0157600080fd5b9392505050565b600060208284031215610a1a57600080fd5b5035919050565b80356001600160a01b0381168114610a3857600080fd5b919050565b60008060408385031215610a5057600080fd5b82359150610a6060208401610a21565b90509250929050565b600060208284031215610a7b57600080fd5b610a0182610a21565b600060208284031215610a9657600080fd5b5051919050565b600060208284031215610aaf57600080fd5b81518015158114610a0157600080fdfea49807205ce4d355092ef5a8a18f56e8913cf4a201fbe287825b095693c21775a2646970667358221220c0aa6b3bc0429995914ba5bb514f3c89a0f6fddfecb67d5eeeb363a1f0708dc764736f6c63430008140033",
  "devdoc": {
    "author": "Echizen500NightmareFox12",
    "errors": {
      "AccessControlBadConfirmation()": [
        {
          "details": "The caller of a function is not the expected one. NOTE: Don't confuse with {AccessControlUnauthorizedAccount}."
        }
      ],
      "AccessControlUnauthorizedAccount(address,bytes32)": [
        {
          "details": "The `account` is missing a role."
        }
      ]
    },
    "events": {
      "RoleAdminChanged(bytes32,bytes32,bytes32)": {
        "details": "Emitted when `newAdminRole` is set as ``role``'s admin role, replacing `previousAdminRole` `DEFAULT_ADMIN_ROLE` is the starting admin for all roles, despite {RoleAdminChanged} not being emitted signaling this."
      },
      "RoleGranted(bytes32,address,address)": {
        "details": "Emitted when `account` is granted `role`. `sender` is the account that originated the contract call, an admin role bearer except when using {AccessControl-_setupRole}."
      },
      "RoleRevoked(bytes32,address,address)": {
        "details": "Emitted when `account` is revoked `role`. `sender` is the account that originated the contract call:   - if using `revokeRole`, it is the admin role bearer   - if using `renounceRole`, it is the role bearer (i.e. `account`)"
      }
    },
    "kind": "dev",
    "methods": {
      "getRoleAdmin(bytes32)": {
        "details": "Returns the admin role that controls `role`. See {grantRole} and {revokeRole}. To change a role's admin, use {_setRoleAdmin}."
      },
      "grantRole(bytes32,address)": {
        "details": "Grants `role` to `account`. If `account` had not been already granted `role`, emits a {RoleGranted} event. Requirements: - the caller must have ``role``'s admin role. May emit a {RoleGranted} event."
      },
      "hasRole(bytes32,address)": {
        "details": "Returns `true` if `account` has been granted `role`."
      },
      "renounceRole(bytes32,address)": {
        "details": "Revokes `role` from the calling account. Roles are often managed via {grantRole} and {revokeRole}: this function's purpose is to provide a mechanism for accounts to lose their privileges if they are compromised (such as when a trusted device is misplaced). If the calling account had been revoked `role`, emits a {RoleRevoked} event. Requirements: - the caller must be `callerConfirmation`. May emit a {RoleRevoked} event."
      },
      "revokeRole(bytes32,address)": {
        "details": "Revokes `role` from `account`. If `account` had been granted `role`, emits a {RoleRevoked} event. Requirements: - the caller must have ``role``'s admin role. May emit a {RoleRevoked} event."
      },
      "supportsInterface(bytes4)": {
        "details": "See {IERC165-supportsInterface}."
      }
    },
    "version": 1
  },
  "userdoc": {
    "kind": "user",
    "methods": {},
    "version": 1
  },
  "storageLayout": {
    "storage": [
      {
        "astId": 26,
        "contract": "contracts/MetaCashback.sol:MetaCashback",
        "label": "_roles",
        "offset": 0,
        "slot": "0",
        "type": "t_mapping(t_bytes32,t_struct(RoleData)21_storage)"
      },
      {
        "astId": 541,
        "contract": "contracts/MetaCashback.sol:MetaCashback",
        "label": "USDCToken",
        "offset": 0,
        "slot": "1",
        "type": "t_contract(IERC20)456"
      },
      {
        "astId": 563,
        "contract": "contracts/MetaCashback.sol:MetaCashback",
        "label": "stakes",
        "offset": 0,
        "slot": "2",
        "type": "t_mapping(t_address,t_struct(StakeStruct)558_storage)"
      },
      {
        "astId": 566,
        "contract": "contracts/MetaCashback.sol:MetaCashback",
        "label": "rewardRate",
        "offset": 0,
        "slot": "3",
        "type": "t_uint256"
      },
      {
        "astId": 573,
        "contract": "contracts/MetaCashback.sol:MetaCashback",
        "label": "minStakingAmount",
        "offset": 0,
        "slot": "4",
        "type": "t_uint256"
      }
    ],
    "types": {
      "t_address": {
        "encoding": "inplace",
        "label": "address",
        "numberOfBytes": "20"
      },
      "t_bool": {
        "encoding": "inplace",
        "label": "bool",
        "numberOfBytes": "1"
      },
      "t_bytes32": {
        "encoding": "inplace",
        "label": "bytes32",
        "numberOfBytes": "32"
      },
      "t_contract(IERC20)456": {
        "encoding": "inplace",
        "label": "contract IERC20",
        "numberOfBytes": "20"
      },
      "t_mapping(t_address,t_bool)": {
        "encoding": "mapping",
        "key": "t_address",
        "label": "mapping(address => bool)",
        "numberOfBytes": "32",
        "value": "t_bool"
      },
      "t_mapping(t_address,t_struct(StakeStruct)558_storage)": {
        "encoding": "mapping",
        "key": "t_address",
        "label": "mapping(address => struct MetaCashback.StakeStruct)",
        "numberOfBytes": "32",
        "value": "t_struct(StakeStruct)558_storage"
      },
      "t_mapping(t_bytes32,t_struct(RoleData)21_storage)": {
        "encoding": "mapping",
        "key": "t_bytes32",
        "label": "mapping(bytes32 => struct AccessControl.RoleData)",
        "numberOfBytes": "32",
        "value": "t_struct(RoleData)21_storage"
      },
      "t_struct(RoleData)21_storage": {
        "encoding": "inplace",
        "label": "struct AccessControl.RoleData",
        "members": [
          {
            "astId": 18,
            "contract": "contracts/MetaCashback.sol:MetaCashback",
            "label": "hasRole",
            "offset": 0,
            "slot": "0",
            "type": "t_mapping(t_address,t_bool)"
          },
          {
            "astId": 20,
            "contract": "contracts/MetaCashback.sol:MetaCashback",
            "label": "adminRole",
            "offset": 0,
            "slot": "1",
            "type": "t_bytes32"
          }
        ],
        "numberOfBytes": "64"
      },
      "t_struct(StakeStruct)558_storage": {
        "encoding": "inplace",
        "label": "struct MetaCashback.StakeStruct",
        "members": [
          {
            "astId": 555,
            "contract": "contracts/MetaCashback.sol:MetaCashback",
            "label": "amount",
            "offset": 0,
            "slot": "0",
            "type": "t_uint256"
          },
          {
            "astId": 557,
            "contract": "contracts/MetaCashback.sol:MetaCashback",
            "label": "timeStamp",
            "offset": 0,
            "slot": "1",
            "type": "t_uint256"
          }
        ],
        "numberOfBytes": "64"
      },
      "t_uint256": {
        "encoding": "inplace",
        "label": "uint256",
        "numberOfBytes": "32"
      }
    }
  }
}