{
  "address": "0x69fBe5461B16aC5047c4d995667E7A38d1270E9E",
  "abi": [
    {
      "inputs": [],
      "stateMutability": "nonpayable",
      "type": "constructor"
    },
    {
      "inputs": [],
      "name": "ELITE_LEVEL",
      "outputs": [
        {
          "internalType": "bytes32",
          "name": "",
          "type": "bytes32"
        }
      ],
      "stateMutability": "view",
      "type": "function"
    },
    {
      "inputs": [],
      "name": "EXPLORER_LEVEL",
      "outputs": [
        {
          "internalType": "bytes32",
          "name": "",
          "type": "bytes32"
        }
      ],
      "stateMutability": "view",
      "type": "function"
    },
    {
      "inputs": [],
      "name": "LEGENDARY_LEVEL",
      "outputs": [
        {
          "internalType": "bytes32",
          "name": "",
          "type": "bytes32"
        }
      ],
      "stateMutability": "view",
      "type": "function"
    },
    {
      "inputs": [],
      "name": "PIONEER_LEVEL",
      "outputs": [
        {
          "internalType": "bytes32",
          "name": "",
          "type": "bytes32"
        }
      ],
      "stateMutability": "view",
      "type": "function"
    },
    {
      "inputs": [],
      "name": "USDCToken",
      "outputs": [
        {
          "internalType": "contract IERC20",
          "name": "",
          "type": "address"
        }
      ],
      "stateMutability": "view",
      "type": "function"
    },
    {
      "inputs": [],
      "name": "getLevel",
      "outputs": [
        {
          "internalType": "bytes32",
          "name": "",
          "type": "bytes32"
        }
      ],
      "stateMutability": "view",
      "type": "function"
    },
    {
      "inputs": [],
      "name": "minStakingAmount",
      "outputs": [
        {
          "internalType": "uint256",
          "name": "",
          "type": "uint256"
        }
      ],
      "stateMutability": "view",
      "type": "function"
    },
    {
      "inputs": [],
      "name": "rewardRate",
      "outputs": [
        {
          "internalType": "uint256",
          "name": "",
          "type": "uint256"
        }
      ],
      "stateMutability": "view",
      "type": "function"
    },
    {
      "inputs": [
        {
          "internalType": "uint256",
          "name": "_amount",
          "type": "uint256"
        }
      ],
      "name": "stakeTokens",
      "outputs": [],
      "stateMutability": "nonpayable",
      "type": "function"
    },
    {
      "inputs": [],
      "name": "withdrawStake",
      "outputs": [],
      "stateMutability": "nonpayable",
      "type": "function"
    }
  ],
  "transactionHash": "0x31f5fcb59d3bc1d17a8af2dfc1847bddb8a3454efaf05c2de12f81271e212663",
  "args": [],
  "numDeployments": 1,
  "solcInputHash": "af731e5de29c5fb7eff0716dc0370927",
  "bytecode": "0x6080604052600080546001600160a01b031916730b2c639c533813f4aa9d7837caf62653d097ff85179055600a600255624c4b4060035534801561004257600080fd5b5061061d806100526000396000f3fe608060405234801561001057600080fd5b506004361061009e5760003560e01c80637b0a47ee116100665780637b0a47ee1461012d578063a5985e8c14610136578063b6caaffb1461013e578063bed9d86114610155578063f10273f21461015d57600080fd5b806321fddf2f146100a357806325c065b1146100cf5780634c34c8de146100d85780636cc832ff146101035780637547c7a314610118575b600080fd5b6100bc6e131151d1539110549657d311559153608a1b81565b6040519081526020015b60405180910390f35b6100bc60035481565b6000546100eb906001600160a01b031681565b6040516001600160a01b0390911681526020016100c6565b6100bc6a115312551157d31155915360aa1b81565b61012b61012636600461058c565b610175565b005b6100bc60025481565b6100bc6103c2565b6100bc6c141253d391515497d311559153609a1b81565b61012b61044c565b6100bc6d1156141313d4915497d31155915360921b81565b600081116101db5760405162461bcd60e51b815260206004820152602860248201527f4465706f73697420616d6f756e74206d7573742062652067726561746572207460448201526768616e207a65726f60c01b60648201526084015b60405180910390fd5b60035481101580156102605750600354600054604051636eb1769f60e11b81523360048201523060248201526001600160a01b039091169063dd62ed3e90604401602060405180830381865afa158015610239573d6000803e3d6000fd5b505050506040513d601f19601f8201168201806040525081019061025d91906105a5565b10155b6102d4576040805162461bcd60e51b81526020600482015260248101919091527f54686520616d6f756e74206f6620746865206465706f736974206d757374206260448201527f6520686967686572207468616e20746865206d696e696d756d20616d6f756e7460648201526084016101d2565b6000546040516323b872dd60e01b8152336004820152306024820152604481018390526001600160a01b03909116906323b872dd906064016020604051808303816000875af115801561032b573d6000803e3d6000fd5b505050506040513d601f19601f8201168201806040525081019061034f91906105be565b6103935760405162461bcd60e51b8152602060048201526015602482015274151bdad95b881d1c985b9cd9995c8819985a5b1959605a1b60448201526064016101d2565b604080518082018252918252426020808401918252336000908152600191829052929092209251835551910155565b3360009081526001602052604081205460648110156103f3576d1156141313d4915497d31155915360921b91505090565b6101f4811015610414576c141253d391515497d311559153609a1b91505090565b6103e8811015610437576e131151d1539110549657d311559153608a1b91505090565b6a115312551157d31155915360aa1b91505090565b336000908152600160205260409020546104b35760405162461bcd60e51b815260206004820152602260248201527f4e6f20746f6b656e7320617661696c61626c6520666f72207769746864726177604482015261185b60f21b60648201526084016101d2565b336000818152600160208190526040808320805484825592018390559154915163a9059cbb60e01b8152600481019390935260248301819052916001600160a01b039091169063a9059cbb906044016020604051808303816000875af1158015610521573d6000803e3d6000fd5b505050506040513d601f19601f8201168201806040525081019061054591906105be565b6105895760405162461bcd60e51b8152602060048201526015602482015274151bdad95b881d1c985b9cd9995c8819985a5b1959605a1b60448201526064016101d2565b50565b60006020828403121561059e57600080fd5b5035919050565b6000602082840312156105b757600080fd5b5051919050565b6000602082840312156105d057600080fd5b815180151581146105e057600080fd5b939250505056fea2646970667358221220c94a247ffcffbdbcee66dd6758212be6d45ddbd3d04acf3a7c62998ea5b3ec6c64736f6c63430008140033",
  "devdoc": {
    "author": "Echizen500NightmareFox12",
    "kind": "dev",
    "methods": {},
    "version": 1
  },
  "userdoc": {
    "kind": "user",
    "methods": {},
    "version": 1
  },
  "storageLayout": {
    "storage": [
      {
        "astId": 87,
        "contract": "contracts/MetaCashback.sol:MetaCashback",
        "label": "USDCToken",
        "offset": 0,
        "slot": "0",
        "type": "t_contract(IERC20)77"
      },
      {
        "astId": 109,
        "contract": "contracts/MetaCashback.sol:MetaCashback",
        "label": "stakes",
        "offset": 0,
        "slot": "1",
        "type": "t_mapping(t_address,t_struct(StakeStruct)104_storage)"
      },
      {
        "astId": 112,
        "contract": "contracts/MetaCashback.sol:MetaCashback",
        "label": "rewardRate",
        "offset": 0,
        "slot": "2",
        "type": "t_uint256"
      },
      {
        "astId": 119,
        "contract": "contracts/MetaCashback.sol:MetaCashback",
        "label": "minStakingAmount",
        "offset": 0,
        "slot": "3",
        "type": "t_uint256"
      }
    ],
    "types": {
      "t_address": {
        "encoding": "inplace",
        "label": "address",
        "numberOfBytes": "20"
      },
      "t_contract(IERC20)77": {
        "encoding": "inplace",
        "label": "contract IERC20",
        "numberOfBytes": "20"
      },
      "t_mapping(t_address,t_struct(StakeStruct)104_storage)": {
        "encoding": "mapping",
        "key": "t_address",
        "label": "mapping(address => struct MetaCashback.StakeStruct)",
        "numberOfBytes": "32",
        "value": "t_struct(StakeStruct)104_storage"
      },
      "t_struct(StakeStruct)104_storage": {
        "encoding": "inplace",
        "label": "struct MetaCashback.StakeStruct",
        "members": [
          {
            "astId": 101,
            "contract": "contracts/MetaCashback.sol:MetaCashback",
            "label": "amount",
            "offset": 0,
            "slot": "0",
            "type": "t_uint256"
          },
          {
            "astId": 103,
            "contract": "contracts/MetaCashback.sol:MetaCashback",
            "label": "timeStamp",
            "offset": 0,
            "slot": "1",
            "type": "t_uint256"
          }
        ],
        "numberOfBytes": "64"
      },
      "t_uint256": {
        "encoding": "inplace",
        "label": "uint256",
        "numberOfBytes": "32"
      }
    }
  }
}