{
  "address": "0x54948441abA3e8083c23D11810D6E51EA09512C8",
  "abi": [
    {
      "inputs": [],
      "stateMutability": "nonpayable",
      "type": "constructor"
    },
    {
      "inputs": [],
      "name": "AccessControlBadConfirmation",
      "type": "error"
    },
    {
      "inputs": [
        {
          "internalType": "address",
          "name": "account",
          "type": "address"
        },
        {
          "internalType": "bytes32",
          "name": "neededRole",
          "type": "bytes32"
        }
      ],
      "name": "AccessControlUnauthorizedAccount",
      "type": "error"
    },
    {
      "anonymous": false,
      "inputs": [
        {
          "indexed": true,
          "internalType": "bytes32",
          "name": "role",
          "type": "bytes32"
        },
        {
          "indexed": true,
          "internalType": "bytes32",
          "name": "previousAdminRole",
          "type": "bytes32"
        },
        {
          "indexed": true,
          "internalType": "bytes32",
          "name": "newAdminRole",
          "type": "bytes32"
        }
      ],
      "name": "RoleAdminChanged",
      "type": "event"
    },
    {
      "anonymous": false,
      "inputs": [
        {
          "indexed": true,
          "internalType": "bytes32",
          "name": "role",
          "type": "bytes32"
        },
        {
          "indexed": true,
          "internalType": "address",
          "name": "account",
          "type": "address"
        },
        {
          "indexed": true,
          "internalType": "address",
          "name": "sender",
          "type": "address"
        }
      ],
      "name": "RoleGranted",
      "type": "event"
    },
    {
      "anonymous": false,
      "inputs": [
        {
          "indexed": true,
          "internalType": "bytes32",
          "name": "role",
          "type": "bytes32"
        },
        {
          "indexed": true,
          "internalType": "address",
          "name": "account",
          "type": "address"
        },
        {
          "indexed": true,
          "internalType": "address",
          "name": "sender",
          "type": "address"
        }
      ],
      "name": "RoleRevoked",
      "type": "event"
    },
    {
      "inputs": [],
      "name": "ADMIN_ROLE",
      "outputs": [
        {
          "internalType": "bytes32",
          "name": "",
          "type": "bytes32"
        }
      ],
      "stateMutability": "view",
      "type": "function"
    },
    {
      "inputs": [],
      "name": "DEFAULT_ADMIN_ROLE",
      "outputs": [
        {
          "internalType": "bytes32",
          "name": "",
          "type": "bytes32"
        }
      ],
      "stateMutability": "view",
      "type": "function"
    },
    {
      "inputs": [],
      "name": "ELITE_LEVEL",
      "outputs": [
        {
          "internalType": "bytes32",
          "name": "",
          "type": "bytes32"
        }
      ],
      "stateMutability": "view",
      "type": "function"
    },
    {
      "inputs": [],
      "name": "EXPLORER_LEVEL",
      "outputs": [
        {
          "internalType": "bytes32",
          "name": "",
          "type": "bytes32"
        }
      ],
      "stateMutability": "view",
      "type": "function"
    },
    {
      "inputs": [],
      "name": "LEGENDARY_LEVEL",
      "outputs": [
        {
          "internalType": "bytes32",
          "name": "",
          "type": "bytes32"
        }
      ],
      "stateMutability": "view",
      "type": "function"
    },
    {
      "inputs": [],
      "name": "PIONEER_LEVEL",
      "outputs": [
        {
          "internalType": "bytes32",
          "name": "",
          "type": "bytes32"
        }
      ],
      "stateMutability": "view",
      "type": "function"
    },
    {
      "inputs": [],
      "name": "USDCToken",
      "outputs": [
        {
          "internalType": "contract IERC20",
          "name": "",
          "type": "address"
        }
      ],
      "stateMutability": "view",
      "type": "function"
    },
    {
      "inputs": [
        {
          "internalType": "address",
          "name": "newAdmin",
          "type": "address"
        }
      ],
      "name": "addAdmin",
      "outputs": [],
      "stateMutability": "nonpayable",
      "type": "function"
    },
    {
      "inputs": [],
      "name": "getLevel",
      "outputs": [
        {
          "internalType": "bytes32",
          "name": "",
          "type": "bytes32"
        }
      ],
      "stateMutability": "view",
      "type": "function"
    },
    {
      "inputs": [
        {
          "internalType": "bytes32",
          "name": "role",
          "type": "bytes32"
        }
      ],
      "name": "getRoleAdmin",
      "outputs": [
        {
          "internalType": "bytes32",
          "name": "",
          "type": "bytes32"
        }
      ],
      "stateMutability": "view",
      "type": "function"
    },
    {
      "inputs": [
        {
          "internalType": "bytes32",
          "name": "role",
          "type": "bytes32"
        },
        {
          "internalType": "address",
          "name": "account",
          "type": "address"
        }
      ],
      "name": "grantRole",
      "outputs": [],
      "stateMutability": "nonpayable",
      "type": "function"
    },
    {
      "inputs": [
        {
          "internalType": "bytes32",
          "name": "role",
          "type": "bytes32"
        },
        {
          "internalType": "address",
          "name": "account",
          "type": "address"
        }
      ],
      "name": "hasRole",
      "outputs": [
        {
          "internalType": "bool",
          "name": "",
          "type": "bool"
        }
      ],
      "stateMutability": "view",
      "type": "function"
    },
    {
      "inputs": [],
      "name": "minStakingAmount",
      "outputs": [
        {
          "internalType": "uint256",
          "name": "",
          "type": "uint256"
        }
      ],
      "stateMutability": "view",
      "type": "function"
    },
    {
      "inputs": [
        {
          "internalType": "bytes32",
          "name": "role",
          "type": "bytes32"
        },
        {
          "internalType": "address",
          "name": "callerConfirmation",
          "type": "address"
        }
      ],
      "name": "renounceRole",
      "outputs": [],
      "stateMutability": "nonpayable",
      "type": "function"
    },
    {
      "inputs": [
        {
          "internalType": "bytes32",
          "name": "role",
          "type": "bytes32"
        },
        {
          "internalType": "address",
          "name": "account",
          "type": "address"
        }
      ],
      "name": "revokeRole",
      "outputs": [],
      "stateMutability": "nonpayable",
      "type": "function"
    },
    {
      "inputs": [],
      "name": "rewardRate",
      "outputs": [
        {
          "internalType": "uint256",
          "name": "",
          "type": "uint256"
        }
      ],
      "stateMutability": "view",
      "type": "function"
    },
    {
      "inputs": [
        {
          "internalType": "uint256",
          "name": "_amount",
          "type": "uint256"
        }
      ],
      "name": "stakeTokens",
      "outputs": [],
      "stateMutability": "nonpayable",
      "type": "function"
    },
    {
      "inputs": [
        {
          "internalType": "address",
          "name": "",
          "type": "address"
        }
      ],
      "name": "stakes",
      "outputs": [
        {
          "internalType": "uint256",
          "name": "amount",
          "type": "uint256"
        },
        {
          "internalType": "uint256",
          "name": "timeStamp",
          "type": "uint256"
        }
      ],
      "stateMutability": "view",
      "type": "function"
    },
    {
      "inputs": [
        {
          "internalType": "bytes4",
          "name": "interfaceId",
          "type": "bytes4"
        }
      ],
      "name": "supportsInterface",
      "outputs": [
        {
          "internalType": "bool",
          "name": "",
          "type": "bool"
        }
      ],
      "stateMutability": "view",
      "type": "function"
    },
    {
      "inputs": [
        {
          "internalType": "uint256",
          "name": "_minAmount",
          "type": "uint256"
        }
      ],
      "name": "updateStakingAmount",
      "outputs": [],
      "stateMutability": "nonpayable",
      "type": "function"
    },
    {
      "inputs": [],
      "name": "withdrawStake",
      "outputs": [],
      "stateMutability": "nonpayable",
      "type": "function"
    }
  ],
  "transactionHash": "0x86c6fd770540eb8a48360154ac64a8b62568f4470573a113f0ff34a3a24d4e9f",
  "args": [],
  "numDeployments": 4,
  "solcInputHash": "34999dbc6d9605871958dd79cfe9e67b",
  "bytecode": "0x6080604052600180546001600160a01b031916730b2c639c533813f4aa9d7837caf62653d097ff85179055600a600355620f424060045534801561004257600080fd5b5061006d7fa49807205ce4d355092ef5a8a18f56e8913cf4a201fbe287825b095693c2177533610073565b5061011f565b6000828152602081815260408083206001600160a01b038516845290915281205460ff16610115576000838152602081815260408083206001600160a01b03861684529091529020805460ff191660011790556100cd3390565b6001600160a01b0316826001600160a01b0316847f2f8788117e7eff1d82e926ec794901d17c78024a50270940304540a733656f0d60405160405180910390a4506001610119565b5060005b92915050565b610b638061012e6000396000f3fe608060405234801561001057600080fd5b50600436106101375760003560e01c80637547c7a3116100b8578063a31969161161007c578063a3196916146102ba578063a5985e8c146102cd578063b6caaffb146102d5578063bed9d861146102ec578063d547741f146102f4578063f10273f21461030757600080fd5b80637547c7a31461026e57806375b238fc146102815780637b0a47ee1461029657806391d148541461029f578063a217fddf146102b257600080fd5b80632f2ff15d116100ff5780632f2ff15d146101f357806336568abe146102085780634c34c8de1461021b5780636cc832ff14610246578063704802751461025b57600080fd5b806301ffc9a71461013c57806316934fc41461016457806321fddf2f146101a0578063248a9ca3146101c757806325c065b1146101ea575b600080fd5b61014f61014a366004610a25565b61031f565b60405190151581526020015b60405180910390f35b61018b610172366004610a72565b6002602052600090815260409020805460019091015482565b6040805192835260208301919091520161015b565b6101b96e131151d1539110549657d311559153608a1b81565b60405190815260200161015b565b6101b96101d5366004610a8d565b60009081526020819052604090206001015490565b6101b960045481565b610206610201366004610aa6565b610356565b005b610206610216366004610aa6565b610381565b60015461022e906001600160a01b031681565b6040516001600160a01b03909116815260200161015b565b6101b96a115312551157d31155915360aa1b81565b610206610269366004610a72565b6103b9565b61020661027c366004610a8d565b610453565b6101b9600080516020610b0e83398151915281565b6101b960035481565b61014f6102ad366004610aa6565b6106a2565b6101b9600081565b6102066102c8366004610a8d565b6106cb565b6101b96106e9565b6101b96c141253d391515497d311559153609a1b81565b61020661077a565b610206610302366004610aa6565b6108bc565b6101b96d1156141313d4915497d31155915360921b81565b60006001600160e01b03198216637965db0b60e01b148061035057506301ffc9a760e01b6001600160e01b03198316145b92915050565b600082815260208190526040902060010154610371816108e1565b61037b83836108eb565b50505050565b6001600160a01b03811633146103aa5760405163334bd91960e11b815260040160405180910390fd5b6103b4828261097d565b505050565b600080516020610b0e8339815191526103d1816108e1565b6103e9600080516020610b0e833981519152836106a2565b1561043b5760405162461bcd60e51b815260206004820152601860248201527f5468652061646d696e20616c726561647920657869737473000000000000000060448201526064015b60405180910390fd5b6103b4600080516020610b0e833981519152836108eb565b600081116104b45760405162461bcd60e51b815260206004820152602860248201527f4465706f73697420616d6f756e74206d7573742062652067726561746572207460448201526768616e207a65726f60c01b6064820152608401610432565b600454811015801561053e575060048054600154604051636eb1769f60e11b8152339381019390935230602484015290916001600160a01b039091169063dd62ed3e90604401602060405180830381865afa158015610517573d6000803e3d6000fd5b505050506040513d601f19601f8201168201806040525081019061053b9190610ad2565b10155b6105b2576040805162461bcd60e51b81526020600482015260248101919091527f54686520616d6f756e74206f6620746865206465706f736974206d757374206260448201527f6520686967686572207468616e20746865206d696e696d756d20616d6f756e746064820152608401610432565b6001546040516323b872dd60e01b8152336004820152306024820152604481018390526001600160a01b03909116906323b872dd906064016020604051808303816000875af1158015610609573d6000803e3d6000fd5b505050506040513d601f19601f8201168201806040525081019061062d9190610aeb565b6106715760405162461bcd60e51b8152602060048201526015602482015274151bdad95b881d1c985b9cd9995c8819985a5b1959605a1b6044820152606401610432565b6040805180820182529182524260208084019182523360009081526002909152919091209151825551600190910155565b6000918252602082815260408084206001600160a01b0393909316845291905290205460ff1690565b600080516020610b0e8339815191526106e3816108e1565b50600455565b336000908152600260205260408120546305f5e10081101561071d576d1156141313d4915497d31155915360921b91505090565b631dcd6500811015610740576c141253d391515497d311559153609a1b91505090565b633b9aca00811015610765576e131151d1539110549657d311559153608a1b91505090565b6a115312551157d31155915360aa1b91505090565b336000908152600260205260409020546107e15760405162461bcd60e51b815260206004820152602260248201527f4e6f20746f6b656e7320617661696c61626c6520666f72207769746864726177604482015261185b60f21b6064820152608401610432565b33600081815260026020526040808220805483825560019182019390935554905163a9059cbb60e01b815260048101939093526024830182905290916001600160a01b039091169063a9059cbb906044016020604051808303816000875af1158015610851573d6000803e3d6000fd5b505050506040513d601f19601f820116820180604052508101906108759190610aeb565b6108b95760405162461bcd60e51b8152602060048201526015602482015274151bdad95b881d1c985b9cd9995c8819985a5b1959605a1b6044820152606401610432565b50565b6000828152602081905260409020600101546108d7816108e1565b61037b838361097d565b6108b981336109e8565b60006108f783836106a2565b610975576000838152602081815260408083206001600160a01b03861684529091529020805460ff1916600117905561092d3390565b6001600160a01b0316826001600160a01b0316847f2f8788117e7eff1d82e926ec794901d17c78024a50270940304540a733656f0d60405160405180910390a4506001610350565b506000610350565b600061098983836106a2565b15610975576000838152602081815260408083206001600160a01b0386168085529252808320805460ff1916905551339286917ff6391f5c32d9c69d2a47ea670b442974b53935d1edc7fd64eb21e047a839171b9190a4506001610350565b6109f282826106a2565b610a215760405163e2517d3f60e01b81526001600160a01b038216600482015260248101839052604401610432565b5050565b600060208284031215610a3757600080fd5b81356001600160e01b031981168114610a4f57600080fd5b9392505050565b80356001600160a01b0381168114610a6d57600080fd5b919050565b600060208284031215610a8457600080fd5b610a4f82610a56565b600060208284031215610a9f57600080fd5b5035919050565b60008060408385031215610ab957600080fd5b82359150610ac960208401610a56565b90509250929050565b600060208284031215610ae457600080fd5b5051919050565b600060208284031215610afd57600080fd5b81518015158114610a4f57600080fdfea49807205ce4d355092ef5a8a18f56e8913cf4a201fbe287825b095693c21775a26469706673582212207f62e238fa89d84874a41712a80544e3f2061a5217aac5f767fba465d97b24ac64736f6c63430008140033",
  "devdoc": {
    "author": "Echizen500NightmareFox12",
    "errors": {
      "AccessControlBadConfirmation()": [
        {
          "details": "The caller of a function is not the expected one. NOTE: Don't confuse with {AccessControlUnauthorizedAccount}."
        }
      ],
      "AccessControlUnauthorizedAccount(address,bytes32)": [
        {
          "details": "The `account` is missing a role."
        }
      ]
    },
    "events": {
      "RoleAdminChanged(bytes32,bytes32,bytes32)": {
        "details": "Emitted when `newAdminRole` is set as ``role``'s admin role, replacing `previousAdminRole` `DEFAULT_ADMIN_ROLE` is the starting admin for all roles, despite {RoleAdminChanged} not being emitted signaling this."
      },
      "RoleGranted(bytes32,address,address)": {
        "details": "Emitted when `account` is granted `role`. `sender` is the account that originated the contract call, an admin role bearer except when using {AccessControl-_setupRole}."
      },
      "RoleRevoked(bytes32,address,address)": {
        "details": "Emitted when `account` is revoked `role`. `sender` is the account that originated the contract call:   - if using `revokeRole`, it is the admin role bearer   - if using `renounceRole`, it is the role bearer (i.e. `account`)"
      }
    },
    "kind": "dev",
    "methods": {
      "getRoleAdmin(bytes32)": {
        "details": "Returns the admin role that controls `role`. See {grantRole} and {revokeRole}. To change a role's admin, use {_setRoleAdmin}."
      },
      "grantRole(bytes32,address)": {
        "details": "Grants `role` to `account`. If `account` had not been already granted `role`, emits a {RoleGranted} event. Requirements: - the caller must have ``role``'s admin role. May emit a {RoleGranted} event."
      },
      "hasRole(bytes32,address)": {
        "details": "Returns `true` if `account` has been granted `role`."
      },
      "renounceRole(bytes32,address)": {
        "details": "Revokes `role` from the calling account. Roles are often managed via {grantRole} and {revokeRole}: this function's purpose is to provide a mechanism for accounts to lose their privileges if they are compromised (such as when a trusted device is misplaced). If the calling account had been revoked `role`, emits a {RoleRevoked} event. Requirements: - the caller must be `callerConfirmation`. May emit a {RoleRevoked} event."
      },
      "revokeRole(bytes32,address)": {
        "details": "Revokes `role` from `account`. If `account` had been granted `role`, emits a {RoleRevoked} event. Requirements: - the caller must have ``role``'s admin role. May emit a {RoleRevoked} event."
      },
      "supportsInterface(bytes4)": {
        "details": "See {IERC165-supportsInterface}."
      }
    },
    "version": 1
  },
  "userdoc": {
    "kind": "user",
    "methods": {},
    "version": 1
  },
  "storageLayout": {
    "storage": [
      {
        "astId": 26,
        "contract": "contracts/MetaCashback.sol:MetaCashback",
        "label": "_roles",
        "offset": 0,
        "slot": "0",
        "type": "t_mapping(t_bytes32,t_struct(RoleData)21_storage)"
      },
      {
        "astId": 541,
        "contract": "contracts/MetaCashback.sol:MetaCashback",
        "label": "USDCToken",
        "offset": 0,
        "slot": "1",
        "type": "t_contract(IERC20)456"
      },
      {
        "astId": 563,
        "contract": "contracts/MetaCashback.sol:MetaCashback",
        "label": "stakes",
        "offset": 0,
        "slot": "2",
        "type": "t_mapping(t_address,t_struct(StakeStruct)558_storage)"
      },
      {
        "astId": 566,
        "contract": "contracts/MetaCashback.sol:MetaCashback",
        "label": "rewardRate",
        "offset": 0,
        "slot": "3",
        "type": "t_uint256"
      },
      {
        "astId": 573,
        "contract": "contracts/MetaCashback.sol:MetaCashback",
        "label": "minStakingAmount",
        "offset": 0,
        "slot": "4",
        "type": "t_uint256"
      }
    ],
    "types": {
      "t_address": {
        "encoding": "inplace",
        "label": "address",
        "numberOfBytes": "20"
      },
      "t_bool": {
        "encoding": "inplace",
        "label": "bool",
        "numberOfBytes": "1"
      },
      "t_bytes32": {
        "encoding": "inplace",
        "label": "bytes32",
        "numberOfBytes": "32"
      },
      "t_contract(IERC20)456": {
        "encoding": "inplace",
        "label": "contract IERC20",
        "numberOfBytes": "20"
      },
      "t_mapping(t_address,t_bool)": {
        "encoding": "mapping",
        "key": "t_address",
        "label": "mapping(address => bool)",
        "numberOfBytes": "32",
        "value": "t_bool"
      },
      "t_mapping(t_address,t_struct(StakeStruct)558_storage)": {
        "encoding": "mapping",
        "key": "t_address",
        "label": "mapping(address => struct MetaCashback.StakeStruct)",
        "numberOfBytes": "32",
        "value": "t_struct(StakeStruct)558_storage"
      },
      "t_mapping(t_bytes32,t_struct(RoleData)21_storage)": {
        "encoding": "mapping",
        "key": "t_bytes32",
        "label": "mapping(bytes32 => struct AccessControl.RoleData)",
        "numberOfBytes": "32",
        "value": "t_struct(RoleData)21_storage"
      },
      "t_struct(RoleData)21_storage": {
        "encoding": "inplace",
        "label": "struct AccessControl.RoleData",
        "members": [
          {
            "astId": 18,
            "contract": "contracts/MetaCashback.sol:MetaCashback",
            "label": "hasRole",
            "offset": 0,
            "slot": "0",
            "type": "t_mapping(t_address,t_bool)"
          },
          {
            "astId": 20,
            "contract": "contracts/MetaCashback.sol:MetaCashback",
            "label": "adminRole",
            "offset": 0,
            "slot": "1",
            "type": "t_bytes32"
          }
        ],
        "numberOfBytes": "64"
      },
      "t_struct(StakeStruct)558_storage": {
        "encoding": "inplace",
        "label": "struct MetaCashback.StakeStruct",
        "members": [
          {
            "astId": 555,
            "contract": "contracts/MetaCashback.sol:MetaCashback",
            "label": "amount",
            "offset": 0,
            "slot": "0",
            "type": "t_uint256"
          },
          {
            "astId": 557,
            "contract": "contracts/MetaCashback.sol:MetaCashback",
            "label": "timeStamp",
            "offset": 0,
            "slot": "1",
            "type": "t_uint256"
          }
        ],
        "numberOfBytes": "64"
      },
      "t_uint256": {
        "encoding": "inplace",
        "label": "uint256",
        "numberOfBytes": "32"
      }
    }
  }
}